{
  "_format": "hh-sol-artifact-1",
  "contractName": "Game",
  "sourceName": "contracts/game.sol",
  "abi": [
    {
      "inputs": [
        {
          "internalType": "contract ALCHI",
          "name": "_token",
          "type": "address"
        }
      ],
      "stateMutability": "nonpayable",
      "type": "constructor"
    },
    {
      "anonymous": false,
      "inputs": [
        {
          "indexed": true,
          "internalType": "address",
          "name": "account",
          "type": "address"
        },
        {
          "indexed": true,
          "internalType": "address",
          "name": "operator",
          "type": "address"
        },
        {
          "indexed": false,
          "internalType": "bool",
          "name": "approved",
          "type": "bool"
        }
      ],
      "name": "ApprovalForAll",
      "type": "event"
    },
    {
      "anonymous": false,
      "inputs": [
        {
          "indexed": true,
          "internalType": "address",
          "name": "operator",
          "type": "address"
        },
        {
          "indexed": true,
          "internalType": "address",
          "name": "from",
          "type": "address"
        },
        {
          "indexed": true,
          "internalType": "address",
          "name": "to",
          "type": "address"
        },
        {
          "indexed": false,
          "internalType": "uint256[]",
          "name": "ids",
          "type": "uint256[]"
        },
        {
          "indexed": false,
          "internalType": "uint256[]",
          "name": "values",
          "type": "uint256[]"
        }
      ],
      "name": "TransferBatch",
      "type": "event"
    },
    {
      "anonymous": false,
      "inputs": [
        {
          "indexed": true,
          "internalType": "address",
          "name": "operator",
          "type": "address"
        },
        {
          "indexed": true,
          "internalType": "address",
          "name": "from",
          "type": "address"
        },
        {
          "indexed": true,
          "internalType": "address",
          "name": "to",
          "type": "address"
        },
        {
          "indexed": false,
          "internalType": "uint256",
          "name": "id",
          "type": "uint256"
        },
        {
          "indexed": false,
          "internalType": "uint256",
          "name": "value",
          "type": "uint256"
        }
      ],
      "name": "TransferSingle",
      "type": "event"
    },
    {
      "anonymous": false,
      "inputs": [
        {
          "indexed": false,
          "internalType": "string",
          "name": "value",
          "type": "string"
        },
        {
          "indexed": true,
          "internalType": "uint256",
          "name": "id",
          "type": "uint256"
        }
      ],
      "name": "URI",
      "type": "event"
    },
    {
      "inputs": [],
      "name": "Air",
      "outputs": [
        {
          "internalType": "uint256",
          "name": "",
          "type": "uint256"
        }
      ],
      "stateMutability": "view",
      "type": "function"
    },
    {
      "inputs": [],
      "name": "Bitcoin",
      "outputs": [
        {
          "internalType": "uint256",
          "name": "",
          "type": "uint256"
        }
      ],
      "stateMutability": "view",
      "type": "function"
    },
    {
      "inputs": [],
      "name": "Blockchain",
      "outputs": [
        {
          "internalType": "uint256",
          "name": "",
          "type": "uint256"
        }
      ],
      "stateMutability": "view",
      "type": "function"
    },
    {
      "inputs": [],
      "name": "Computer",
      "outputs": [
        {
          "internalType": "uint256",
          "name": "",
          "type": "uint256"
        }
      ],
      "stateMutability": "view",
      "type": "function"
    },
    {
      "inputs": [],
      "name": "Earth",
      "outputs": [
        {
          "internalType": "uint256",
          "name": "",
          "type": "uint256"
        }
      ],
      "stateMutability": "view",
      "type": "function"
    },
    {
      "inputs": [],
      "name": "Electricity",
      "outputs": [
        {
          "internalType": "uint256",
          "name": "",
          "type": "uint256"
        }
      ],
      "stateMutability": "view",
      "type": "function"
    },
    {
      "inputs": [],
      "name": "Energy",
      "outputs": [
        {
          "internalType": "uint256",
          "name": "",
          "type": "uint256"
        }
      ],
      "stateMutability": "view",
      "type": "function"
    },
    {
      "inputs": [],
      "name": "Eyeglasse",
      "outputs": [
        {
          "internalType": "uint256",
          "name": "",
          "type": "uint256"
        }
      ],
      "stateMutability": "view",
      "type": "function"
    },
    {
      "inputs": [],
      "name": "Fire",
      "outputs": [
        {
          "internalType": "uint256",
          "name": "",
          "type": "uint256"
        }
      ],
      "stateMutability": "view",
      "type": "function"
    },
    {
      "inputs": [],
      "name": "Glass",
      "outputs": [
        {
          "internalType": "uint256",
          "name": "",
          "type": "uint256"
        }
      ],
      "stateMutability": "view",
      "type": "function"
    },
    {
      "inputs": [],
      "name": "Human",
      "outputs": [
        {
          "internalType": "uint256",
          "name": "",
          "type": "uint256"
        }
      ],
      "stateMutability": "view",
      "type": "function"
    },
    {
      "inputs": [],
      "name": "Internet",
      "outputs": [
        {
          "internalType": "uint256",
          "name": "",
          "type": "uint256"
        }
      ],
      "stateMutability": "view",
      "type": "function"
    },
    {
      "inputs": [],
      "name": "Lava",
      "outputs": [
        {
          "internalType": "uint256",
          "name": "",
          "type": "uint256"
        }
      ],
      "stateMutability": "view",
      "type": "function"
    },
    {
      "inputs": [],
      "name": "Life",
      "outputs": [
        {
          "internalType": "uint256",
          "name": "",
          "type": "uint256"
        }
      ],
      "stateMutability": "view",
      "type": "function"
    },
    {
      "inputs": [],
      "name": "Metal",
      "outputs": [
        {
          "internalType": "uint256",
          "name": "",
          "type": "uint256"
        }
      ],
      "stateMutability": "view",
      "type": "function"
    },
    {
      "inputs": [],
      "name": "Mud",
      "outputs": [
        {
          "internalType": "uint256",
          "name": "",
          "type": "uint256"
        }
      ],
      "stateMutability": "view",
      "type": "function"
    },
    {
      "inputs": [],
      "name": "Nerd",
      "outputs": [
        {
          "internalType": "uint256",
          "name": "",
          "type": "uint256"
        }
      ],
      "stateMutability": "view",
      "type": "function"
    },
    {
      "inputs": [],
      "name": "Plant",
      "outputs": [
        {
          "internalType": "uint256",
          "name": "",
          "type": "uint256"
        }
      ],
      "stateMutability": "view",
      "type": "function"
    },
    {
      "inputs": [],
      "name": "Rain",
      "outputs": [
        {
          "internalType": "uint256",
          "name": "",
          "type": "uint256"
        }
      ],
      "stateMutability": "view",
      "type": "function"
    },
    {
      "inputs": [],
      "name": "Rock",
      "outputs": [
        {
          "internalType": "uint256",
          "name": "",
          "type": "uint256"
        }
      ],
      "stateMutability": "view",
      "type": "function"
    },
    {
      "inputs": [],
      "name": "Sand",
      "outputs": [
        {
          "internalType": "uint256",
          "name": "",
          "type": "uint256"
        }
      ],
      "stateMutability": "view",
      "type": "function"
    },
    {
      "inputs": [],
      "name": "Steam",
      "outputs": [
        {
          "internalType": "uint256",
          "name": "",
          "type": "uint256"
        }
      ],
      "stateMutability": "view",
      "type": "function"
    },
    {
      "inputs": [],
      "name": "Swamp",
      "outputs": [
        {
          "internalType": "uint256",
          "name": "",
          "type": "uint256"
        }
      ],
      "stateMutability": "view",
      "type": "function"
    },
    {
      "inputs": [],
      "name": "Water",
      "outputs": [
        {
          "internalType": "uint256",
          "name": "",
          "type": "uint256"
        }
      ],
      "stateMutability": "view",
      "type": "function"
    },
    {
      "inputs": [
        {
          "internalType": "address",
          "name": "account",
          "type": "address"
        },
        {
          "internalType": "uint256",
          "name": "id",
          "type": "uint256"
        }
      ],
      "name": "balanceOf",
      "outputs": [
        {
          "internalType": "uint256",
          "name": "",
          "type": "uint256"
        }
      ],
      "stateMutability": "view",
      "type": "function"
    },
    {
      "inputs": [
        {
          "internalType": "address[]",
          "name": "accounts",
          "type": "address[]"
        },
        {
          "internalType": "uint256[]",
          "name": "ids",
          "type": "uint256[]"
        }
      ],
      "name": "balanceOfBatch",
      "outputs": [
        {
          "internalType": "uint256[]",
          "name": "",
          "type": "uint256[]"
        }
      ],
      "stateMutability": "view",
      "type": "function"
    },
    {
      "inputs": [],
      "name": "fee",
      "outputs": [
        {
          "internalType": "uint256",
          "name": "",
          "type": "uint256"
        }
      ],
      "stateMutability": "view",
      "type": "function"
    },
    {
      "inputs": [
        {
          "internalType": "address",
          "name": "account",
          "type": "address"
        },
        {
          "internalType": "address",
          "name": "operator",
          "type": "address"
        }
      ],
      "name": "isApprovedForAll",
      "outputs": [
        {
          "internalType": "bool",
          "name": "",
          "type": "bool"
        }
      ],
      "stateMutability": "view",
      "type": "function"
    },
    {
      "inputs": [],
      "name": "mintBitcoin",
      "outputs": [],
      "stateMutability": "nonpayable",
      "type": "function"
    },
    {
      "inputs": [],
      "name": "mintBlockchain",
      "outputs": [],
      "stateMutability": "nonpayable",
      "type": "function"
    },
    {
      "inputs": [],
      "name": "mintComputer",
      "outputs": [],
      "stateMutability": "nonpayable",
      "type": "function"
    },
    {
      "inputs": [],
      "name": "mintElectricity",
      "outputs": [],
      "stateMutability": "nonpayable",
      "type": "function"
    },
    {
      "inputs": [],
      "name": "mintEnergy",
      "outputs": [],
      "stateMutability": "nonpayable",
      "type": "function"
    },
    {
      "inputs": [],
      "name": "mintEyeglasse",
      "outputs": [],
      "stateMutability": "nonpayable",
      "type": "function"
    },
    {
      "inputs": [],
      "name": "mintGlass",
      "outputs": [],
      "stateMutability": "nonpayable",
      "type": "function"
    },
    {
      "inputs": [],
      "name": "mintHuman",
      "outputs": [],
      "stateMutability": "nonpayable",
      "type": "function"
    },
    {
      "inputs": [],
      "name": "mintInternet",
      "outputs": [],
      "stateMutability": "nonpayable",
      "type": "function"
    },
    {
      "inputs": [],
      "name": "mintLava",
      "outputs": [],
      "stateMutability": "nonpayable",
      "type": "function"
    },
    {
      "inputs": [],
      "name": "mintLife",
      "outputs": [],
      "stateMutability": "nonpayable",
      "type": "function"
    },
    {
      "inputs": [],
      "name": "mintMetal",
      "outputs": [],
      "stateMutability": "nonpayable",
      "type": "function"
    },
    {
      "inputs": [],
      "name": "mintMud",
      "outputs": [],
      "stateMutability": "nonpayable",
      "type": "function"
    },
    {
      "inputs": [],
      "name": "mintNerd",
      "outputs": [],
      "stateMutability": "nonpayable",
      "type": "function"
    },
    {
      "inputs": [],
      "name": "mintPlant",
      "outputs": [],
      "stateMutability": "nonpayable",
      "type": "function"
    },
    {
      "inputs": [],
      "name": "mintRain",
      "outputs": [],
      "stateMutability": "nonpayable",
      "type": "function"
    },
    {
      "inputs": [],
      "name": "mintRock",
      "outputs": [],
      "stateMutability": "nonpayable",
      "type": "function"
    },
    {
      "inputs": [],
      "name": "mintSand",
      "outputs": [],
      "stateMutability": "nonpayable",
      "type": "function"
    },
    {
      "inputs": [],
      "name": "mintStandard",
      "outputs": [],
      "stateMutability": "nonpayable",
      "type": "function"
    },
    {
      "inputs": [],
      "name": "mintSteam",
      "outputs": [],
      "stateMutability": "nonpayable",
      "type": "function"
    },
    {
      "inputs": [],
      "name": "mintSwamp",
      "outputs": [],
      "stateMutability": "nonpayable",
      "type": "function"
    },
    {
      "inputs": [
        {
          "internalType": "address",
          "name": "from",
          "type": "address"
        },
        {
          "internalType": "address",
          "name": "to",
          "type": "address"
        },
        {
          "internalType": "uint256[]",
          "name": "ids",
          "type": "uint256[]"
        },
        {
          "internalType": "uint256[]",
          "name": "amounts",
          "type": "uint256[]"
        },
        {
          "internalType": "bytes",
          "name": "data",
          "type": "bytes"
        }
      ],
      "name": "safeBatchTransferFrom",
      "outputs": [],
      "stateMutability": "nonpayable",
      "type": "function"
    },
    {
      "inputs": [
        {
          "internalType": "address",
          "name": "from",
          "type": "address"
        },
        {
          "internalType": "address",
          "name": "to",
          "type": "address"
        },
        {
          "internalType": "uint256",
          "name": "id",
          "type": "uint256"
        },
        {
          "internalType": "uint256",
          "name": "amount",
          "type": "uint256"
        },
        {
          "internalType": "bytes",
          "name": "data",
          "type": "bytes"
        }
      ],
      "name": "safeTransferFrom",
      "outputs": [],
      "stateMutability": "nonpayable",
      "type": "function"
    },
    {
      "inputs": [
        {
          "internalType": "address",
          "name": "operator",
          "type": "address"
        },
        {
          "internalType": "bool",
          "name": "approved",
          "type": "bool"
        }
      ],
      "name": "setApprovalForAll",
      "outputs": [],
      "stateMutability": "nonpayable",
      "type": "function"
    },
    {
      "inputs": [
        {
          "internalType": "address",
          "name": "_account",
          "type": "address"
        }
      ],
      "name": "setfundAddress",
      "outputs": [],
      "stateMutability": "nonpayable",
      "type": "function"
    },
    {
      "inputs": [
        {
          "internalType": "bytes4",
          "name": "interfaceId",
          "type": "bytes4"
        }
      ],
      "name": "supportsInterface",
      "outputs": [
        {
          "internalType": "bool",
          "name": "",
          "type": "bool"
        }
      ],
      "stateMutability": "view",
      "type": "function"
    },
    {
      "inputs": [],
      "name": "token",
      "outputs": [
        {
          "internalType": "contract ALCHI",
          "name": "",
          "type": "address"
        }
      ],
      "stateMutability": "view",
      "type": "function"
    },
    {
      "inputs": [
        {
          "internalType": "uint256",
          "name": "",
          "type": "uint256"
        }
      ],
      "name": "uri",
      "outputs": [
        {
          "internalType": "string",
          "name": "",
          "type": "string"
        }
      ],
      "stateMutability": "view",
      "type": "function"
    }
  ],
  "bytecode": "0x60806040523480156200001157600080fd5b5060405162002e4538038062002e45833981016040819052620000349162000154565b6040518060800160405280605a815260200162002deb605a9139620000598162000095565b50600380546001600160a01b039092166001600160a01b03199283161790556005805490911633179055678ac7230489e80000600455620001c1565b8051620000aa906002906020840190620000ae565b5050565b828054620000bc9062000184565b90600052602060002090601f016020900481019282620000e057600085556200012b565b82601f10620000fb57805160ff19168380011785556200012b565b828001600101855582156200012b579182015b828111156200012b5782518255916020019190600101906200010e565b50620001399291506200013d565b5090565b5b808211156200013957600081556001016200013e565b60006020828403121562000166578081fd5b81516001600160a01b03811681146200017d578182fd5b9392505050565b6002810460018216806200019957607f821691505b60208210811415620001bb57634e487b7160e01b600052602260045260246000fd5b50919050565b612c1a80620001d16000396000f3fe608060405234801561001057600080fd5b50600436106103775760003560e01c80636f0fa17f116101d3578063ba8f4acf11610104578063e2acaeef116100a2578063eb4bb8df1161007c578063eb4bb8df146105b3578063f242432a146105bb578063f37633f9146105ce578063fc0c546a146105d657610377565b8063e2acaeef14610590578063e985e9c514610598578063eb2a1f4f146105ab57610377565b8063cbf904b4116100de578063cbf904b414610570578063d50b57c314610578578063d73412db14610580578063ddca3f431461058857610377565b8063ba8f4acf14610558578063bfdc948b14610560578063cb9d7c161461056857610377565b8063a22cb46511610171578063ac6dc89d1161014b578063ac6dc89d14610538578063ae726b3d14610540578063b29d81f014610548578063b870dcf61461055057610377565b8063a22cb46514610515578063a23b791a14610528578063a64f64f21461053057610377565b80637e061660116101ad5780637e061660146104ea578063908ee140146104f2578063a151939f146104fa578063a1ac2fef1461050d57610377565b80636f0fa17f146104d257806374afa174146104da57806376bde502146104e257610377565b8063422b5e3e116102ad578063588e3c7a1161024b5780635f72cc8f116102255780635f72cc8f146104b257806360689557146104ba5780636aecfb3f146104c25780636e69adcf146104ca57610377565b8063588e3c7a1461049a5780635952828c146104a25780635f2f63aa146104aa57610377565b80634c2e5d82116102875780634c2e5d82146104625780634e1273f41461046a57806353b1b49b1461048a57806355aeceea1461049257610377565b8063422b5e3e1461044a57806344b2f8c414610452578063474ce3681461045a57610377565b806320ec885b1161031a5780632aaa6b19116102f45780632aaa6b191461041f5780632eb2c2d6146104275780632f35a71e1461043a5780633d82e8971461044257610377565b806320ec885b14610407578063214a827c1461040f578063299ccd011461041757610377565b8063140d015311610356578063140d0153146103e557806314c539ef146103ef57806316625b8a146103f757806319c34d1e146103ff57610377565b8062fdd58e1461037c57806301ffc9a7146103a55780630e89341c146103c5575b600080fd5b61038f61038a366004612001565b6105eb565b60405161039c91906129f6565b60405180910390f35b6103b86103b336600461210f565b610642565b60405161039c91906122ec565b6103d86103d3366004612147565b61068a565b60405161039c919061230b565b6103ed61071e565b005b61038f61083d565b61038f610842565b61038f610847565b6103ed61084c565b6103ed61095a565b61038f6109d9565b6103ed6109de565b6103ed610435366004611ec2565b610a5d565b61038f610abb565b6103ed610ac0565b6103ed610b3f565b6103ed610bbe565b61038f610c3d565b6103ed610c42565b61047d61047836600461202a565b610cc1565b60405161039c91906122ab565b61038f610de1565b61038f610de6565b61038f610deb565b61038f610df0565b6103ed610df5565b61038f610e74565b61038f610e79565b61038f610e7e565b61038f610e83565b6103ed610e88565b61038f610f07565b61038f610f0c565b61038f610f11565b6103ed610f16565b6103ed610508366004611e6f565b610f95565b6103ed610fce565b6103ed610523366004611fcb565b61104d565b61038f611063565b6103ed611068565b61038f6110e7565b6103ed6110ec565b6103ed61116b565b6103ed6111ea565b6103ed611269565b6103ed61135c565b6103ed6113db565b61038f61145a565b61038f61145f565b61038f611464565b61038f611469565b6103ed61146f565b6103b86105a6366004611e90565b6114ee565b61038f61151c565b6103ed611521565b6103ed6105c9366004611f68565b6115a0565b61038f6115f7565b6105de6115fc565b60405161039c91906122f7565b60006001600160a01b03831661061c5760405162461bcd60e51b8152600401610613906125c4565b60405180910390fd5b506000908152602081815260408083206001600160a01b03949094168352929052205490565b60006001600160e01b03198216636cdb3d1360e11b148061067357506001600160e01b031982166303a24d0760e21b145b8061068257506106828261160b565b90505b919050565b60606002805461069990612a68565b80601f01602080910402602001604051908101604052809291908181526020018280546106c590612a68565b80156107125780601f106106e757610100808354040283529160200191610712565b820191906000526020600020905b8154815290600101906020018083116106f557829003601f168201915b50505050509050919050565b600061072b3360166105eb565b116107485760405162461bcd60e51b81526004016106139061258d565b60006107553360136105eb565b116107725760405162461bcd60e51b81526004016106139061255f565b61079d336017600160405180604001604052806005815260200164030783030360dc1b815250611624565b600354600654600480546040516323b872dd60e01b81526001600160a01b03948516946323b872dd946107d7943394929091169201612242565b602060405180830381600087803b1580156107f157600080fd5b505af1158015610805573d6000803e3d6000fd5b505050506040513d601f19601f8201168201806040525081019061082991906120f3565b50600454610838906002612a49565b600455565b600281565b600181565b601381565b60006108593360116105eb565b116108765760405162461bcd60e51b815260040161061390612409565b60006108833360036105eb565b116108a05760405162461bcd60e51b81526004016106139061266a565b6108cb336012600160405180604001604052806005815260200164030783030360dc1b815250611624565b600354600654600480546040516323b872dd60e01b81526001600160a01b03948516946323b872dd94610905943394929091169201612242565b602060405180830381600087803b15801561091f57600080fd5b505af1158015610933573d6000803e3d6000fd5b505050506040513d601f19601f8201168201806040525081019061095791906120f3565b50565b60006109673360006105eb565b116109845760405162461bcd60e51b815260040161061390612437565b60006109913360016105eb565b116109ae5760405162461bcd60e51b815260040161061390612699565b6108cb336007600160405180604001604052806005815260200164030783030360dc1b815250611624565b600d81565b60006109eb3360016105eb565b11610a085760405162461bcd60e51b815260040161061390612699565b6000610a1533600a6105eb565b11610a325760405162461bcd60e51b81526004016106139061260e565b6108cb33600b600160405180604001604052806005815260200164030783030360dc1b815250611624565b610a65611735565b6001600160a01b0316856001600160a01b03161480610a8b5750610a8b856105a6611735565b610aa75760405162461bcd60e51b815260040161061390612372565b610ab4858585858561173a565b5050505050565b601681565b6000610acd3360106105eb565b11610aea5760405162461bcd60e51b81526004016106139061270b565b6000610af73360136105eb565b11610b145760405162461bcd60e51b81526004016106139061255f565b6108cb336014600160405180604001604052806005815260200164030783030360dc1b815250611624565b6000610b4c3360026105eb565b11610b695760405162461bcd60e51b81526004016106139061263c565b6000610b7633600b6105eb565b11610b935760405162461bcd60e51b815260040161061390612847565b6108cb33600d600160405180604001604052806005815260200164030783030360dc1b815250611624565b6000610bcb3360056105eb565b11610be85760405162461bcd60e51b8152600401610613906124cb565b6000610bf53360086105eb565b11610c125760405162461bcd60e51b8152600401610613906127bb565b6108cb336011600160405180604001604052806005815260200164030783030360dc1b815250611624565b601481565b6000610c4f3360056105eb565b11610c6c5760405162461bcd60e51b8152600401610613906124cb565b6000610c7933600c6105eb565b11610c965760405162461bcd60e51b8152600401610613906127bb565b6108cb336010600160405180604001604052806005815260200164030783030360dc1b815250611624565b60608151835114610ce45760405162461bcd60e51b8152600401610613906128be565b6000835167ffffffffffffffff811115610d0e57634e487b7160e01b600052604160045260246000fd5b604051908082528060200260200182016040528015610d37578160200160208202803683370190505b50905060005b8451811015610dd957610d9e858281518110610d6957634e487b7160e01b600052603260045260246000fd5b6020026020010151858381518110610d9157634e487b7160e01b600052603260045260246000fd5b60200260200101516105eb565b828281518110610dbe57634e487b7160e01b600052603260045260246000fd5b6020908102919091010152610dd281612ad0565b9050610d3d565b509392505050565b601281565b600e81565b600481565b601081565b6000610e023360026105eb565b11610e1f5760405162461bcd60e51b81526004016106139061263c565b6000610e2c3360016105eb565b11610e495760405162461bcd60e51b815260040161061390612699565b6108cb336005600160405180604001604052806005815260200164030783030360dc1b815250611624565b600581565b600a81565b600881565b600081565b6000610e953360006105eb565b11610eb25760405162461bcd60e51b815260040161061390612437565b6000610ebf3360036105eb565b11610edc5760405162461bcd60e51b81526004016106139061266a565b6108cb336008600160405180604001604052806005815260200164030783030360dc1b815250611624565b600681565b600781565b600981565b6000610f233360146105eb565b11610f405760405162461bcd60e51b815260040161061390612466565b6000610f4d3360146105eb565b11610f6a5760405162461bcd60e51b815260040161061390612466565b6108cb336015600160405180604001604052806005815260200164030783030360dc1b815250611624565b6005546001600160a01b03163314610fac57600080fd5b600680546001600160a01b0319166001600160a01b0392909216919091179055565b6000610fdb3360016105eb565b11610ff85760405162461bcd60e51b815260040161061390612699565b60006110053360066105eb565b116110225760405162461bcd60e51b815260040161061390612819565b6108cb33600a600160405180604001604052806005815260200164030783030360dc1b815250611624565b61105f611058611735565b8383611919565b5050565b601781565b60006110753360026105eb565b116110925760405162461bcd60e51b81526004016106139061263c565b600061109f33600a6105eb565b116110bc5760405162461bcd60e51b81526004016106139061260e565b6108cb33600c600160405180604001604052806005815260200164030783030360dc1b815250611624565b600f81565b60006110f93360006105eb565b116111165760405162461bcd60e51b815260040161061390612437565b60006111233360026105eb565b116111405760405162461bcd60e51b81526004016106139061263c565b6108cb336004600160405180604001604052806005815260200164030783030360dc1b815250611624565b60006111783360096105eb565b116111955760405162461bcd60e51b81526004016106139061278c565b60006111a23360086105eb565b116111bf5760405162461bcd60e51b8152600401610613906124fb565b6108cb33600e600160405180604001604052806005815260200164030783030360dc1b815250611624565b60006111f73360146105eb565b116112145760405162461bcd60e51b815260040161061390612466565b60006112213360156105eb565b1161123e5760405162461bcd60e51b815260040161061390612990565b6108cb336016600160405180604001604052806005815260200164030783030360dc1b815250611624565b611294336000600160405180604001604052806005815260200164030783030360dc1b815250611624565b6112be3360018060405180604001604052806005815260200164030783030360dc1b815250611624565b6112e9336002600160405180604001604052806005815260200164030783030360dc1b815250611624565b611314336003600160405180604001604052806005815260200164030783030360dc1b815250611624565b600354600654600480546001600160a01b03938416936323b872dd93339391169161133e91612a49565b6040518463ffffffff1660e01b815260040161090593929190612242565b600061136933600d6105eb565b116113865760405162461bcd60e51b8152600401610613906127ea565b600061139333600d6105eb565b116113b05760405162461bcd60e51b8152600401610613906127ea565b6108cb33600f600160405180604001604052806005815260200164030783030360dc1b815250611624565b60006113e83360076105eb565b116114055760405162461bcd60e51b81526004016106139061249d565b60006114123360036105eb565b1161142f5760405162461bcd60e51b81526004016106139061266a565b6108cb336009600160405180604001604052806005815260200164030783030360dc1b815250611624565b600b81565b601181565b600381565b60045481565b600061147c33600f6105eb565b116114995760405162461bcd60e51b815260040161061390612528565b60006114a63360126105eb565b116114c35760405162461bcd60e51b8152600401610613906129c7565b6108cb336013600160405180604001604052806005815260200164030783030360dc1b815250611624565b6001600160a01b03918216600090815260016020908152604080832093909416825291909152205460ff1690565b600c81565b600061152e3360026105eb565b1161154b5760405162461bcd60e51b81526004016106139061263c565b60006115583360036105eb565b116115755760405162461bcd60e51b81526004016106139061266a565b6108cb336006600160405180604001604052806005815260200164030783030360dc1b815250611624565b6115a8611735565b6001600160a01b0316856001600160a01b031614806115ce57506115ce856105a6611735565b6115ea5760405162461bcd60e51b815260040161061390612372565b610ab485858585856119bc565b601581565b6003546001600160a01b031681565b6001600160e01b031981166301ffc9a760e01b14919050565b6001600160a01b03841661164a5760405162461bcd60e51b81526004016106139061294f565b6000611654611735565b9050600061166185611b19565b9050600061166e85611b19565b905061167f83600089858589611911565b6000868152602081815260408083206001600160a01b038b168452909152812080548792906116af908490612a31565b92505081905550866001600160a01b031660006001600160a01b0316846001600160a01b03167fc3d58168c5ae7397731d063d5bbf3d657854427343f4c083240f7aacaa2d0f6289896040516117069291906129ff565b60405180910390a461171d83600089858589611911565b61172c83600089898989611b72565b50505050505050565b335b90565b815183511461175b5760405162461bcd60e51b815260040161061390612907565b6001600160a01b0384166117815760405162461bcd60e51b8152600401610613906126c6565b600061178b611735565b905061179b818787878787611911565b60005b845181101561189d5760008582815181106117c957634e487b7160e01b600052603260045260246000fd5b6020026020010151905060008583815181106117f557634e487b7160e01b600052603260045260246000fd5b602090810291909101810151600084815280835260408082206001600160a01b038e1683529093529190912054909150818110156118455760405162461bcd60e51b815260040161061390612742565b6000838152602081815260408083206001600160a01b038e8116855292528083208585039055908b16825281208054849290611882908490612a31565b925050819055505050508061189690612ad0565b905061179e565b50846001600160a01b0316866001600160a01b0316826001600160a01b03167f4a39dc06d4c0dbc64b70af90fd698a233a518aa5d07e595d983b8c0526c8f7fb87876040516118ed9291906122be565b60405180910390a4611903818787878787611911565b611911818787878787611c97565b505050505050565b816001600160a01b0316836001600160a01b0316141561194b5760405162461bcd60e51b815260040161061390612875565b6001600160a01b0383811660008181526001602090815260408083209487168084529490915290819020805460ff1916851515179055517f17307eab39ab6107e8899845ad3d59bd9653f200f220920489ca2b5937696c31906119af9085906122ec565b60405180910390a3505050565b6001600160a01b0384166119e25760405162461bcd60e51b8152600401610613906126c6565b60006119ec611735565b905060006119f985611b19565b90506000611a0685611b19565b9050611a16838989858589611911565b6000868152602081815260408083206001600160a01b038c16845290915290205485811015611a575760405162461bcd60e51b815260040161061390612742565b6000878152602081815260408083206001600160a01b038d8116855292528083208985039055908a16825281208054889290611a94908490612a31565b92505081905550876001600160a01b0316896001600160a01b0316856001600160a01b03167fc3d58168c5ae7397731d063d5bbf3d657854427343f4c083240f7aacaa2d0f628a8a604051611aea9291906129ff565b60405180910390a4611b00848a8a86868a611911565b611b0e848a8a8a8a8a611b72565b505050505050505050565b60408051600180825281830190925260609160009190602080830190803683370190505090508281600081518110611b6157634e487b7160e01b600052603260045260246000fd5b602090810291909101015292915050565b611b84846001600160a01b0316611d68565b156119115760405163f23a6e6160e01b81526001600160a01b0385169063f23a6e6190611bbd9089908990889088908890600401612266565b602060405180830381600087803b158015611bd757600080fd5b505af1925050508015611c07575060408051601f3d908101601f19168201909252611c049181019061212b565b60015b611c6757611c13612b17565b806308c379a01415611c4d5750611c28612b2e565b80611c335750611c4f565b8060405162461bcd60e51b8152600401610613919061230b565b505b60405162461bcd60e51b81526004016106139061231e565b6001600160e01b0319811663f23a6e6160e01b1461172c5760405162461bcd60e51b8152600401610613906123c1565b611ca9846001600160a01b0316611d68565b156119115760405163bc197c8160e01b81526001600160a01b0385169063bc197c8190611ce290899089908890889088906004016121e4565b602060405180830381600087803b158015611cfc57600080fd5b505af1925050508015611d2c575060408051601f3d908101601f19168201909252611d299181019061212b565b60015b611d3857611c13612b17565b6001600160e01b0319811663bc197c8160e01b1461172c5760405162461bcd60e51b8152600401610613906123c1565b6001600160a01b03163b151590565b80356001600160a01b038116811461068557600080fd5b600082601f830112611d9e578081fd5b81356020611dab82612a0d565b604051611db88282612aa3565b838152828101915085830183850287018401881015611dd5578586fd5b855b85811015611df357813584529284019290840190600101611dd7565b5090979650505050505050565b600082601f830112611e10578081fd5b813567ffffffffffffffff811115611e2a57611e2a612b01565b604051611e41601f8301601f191660200182612aa3565b818152846020838601011115611e55578283fd5b816020850160208301379081016020019190915292915050565b600060208284031215611e80578081fd5b611e8982611d77565b9392505050565b60008060408385031215611ea2578081fd5b611eab83611d77565b9150611eb960208401611d77565b90509250929050565b600080600080600060a08688031215611ed9578081fd5b611ee286611d77565b9450611ef060208701611d77565b9350604086013567ffffffffffffffff80821115611f0c578283fd5b611f1889838a01611d8e565b94506060880135915080821115611f2d578283fd5b611f3989838a01611d8e565b93506080880135915080821115611f4e578283fd5b50611f5b88828901611e00565b9150509295509295909350565b600080600080600060a08688031215611f7f578081fd5b611f8886611d77565b9450611f9660208701611d77565b93506040860135925060608601359150608086013567ffffffffffffffff811115611fbf578182fd5b611f5b88828901611e00565b60008060408385031215611fdd578182fd5b611fe683611d77565b91506020830135611ff681612bc0565b809150509250929050565b60008060408385031215612013578182fd5b61201c83611d77565b946020939093013593505050565b6000806040838503121561203c578182fd5b823567ffffffffffffffff80821115612053578384fd5b818501915085601f830112612066578384fd5b8135602061207382612a0d565b6040516120808282612aa3565b8381528281019150858301838502870184018b101561209d578889fd5b8896505b848710156120c6576120b281611d77565b8352600196909601959183019183016120a1565b50965050860135925050808211156120dc578283fd5b506120e985828601611d8e565b9150509250929050565b600060208284031215612104578081fd5b8151611e8981612bc0565b600060208284031215612120578081fd5b8135611e8981612bce565b60006020828403121561213c578081fd5b8151611e8981612bce565b600060208284031215612158578081fd5b5035919050565b6000815180845260208085019450808401835b8381101561218e57815187529582019590820190600101612172565b509495945050505050565b60008151808452815b818110156121be576020818501810151868301820152016121a2565b818111156121cf5782602083870101525b50601f01601f19169290920160200192915050565b6001600160a01b0386811682528516602082015260a0604082018190526000906122109083018661215f565b8281036060840152612222818661215f565b905082810360808401526122368185612199565b98975050505050505050565b6001600160a01b039384168152919092166020820152604081019190915260600190565b6001600160a01b03868116825285166020820152604081018490526060810183905260a0608082018190526000906122a090830184612199565b979650505050505050565b600060208252611e89602083018461215f565b6000604082526122d1604083018561215f565b82810360208401526122e3818561215f565b95945050505050565b901515815260200190565b6001600160a01b0391909116815260200190565b600060208252611e896020830184612199565b60208082526034908201527f455243313135353a207472616e7366657220746f206e6f6e20455243313135356040820152732932b1b2b4bb32b91034b6b83632b6b2b73a32b960611b606082015260800190565b6020808252602f908201527f455243313135353a2063616c6c6572206973206e6f7420746f6b656e206f776e60408201526e195c881b9bdc88185c1c1c9bdd9959608a1b606082015260800190565b60208082526028908201527f455243313135353a204552433131353552656365697665722072656a656374656040820152676420746f6b656e7360c01b606082015260800190565b602080825260149082015273796f75206e65656420686176652061204c69666560601b604082015260600190565b6020808252601590820152743cb7ba903732b2b2103430bb329030902bb0ba32b960591b604082015260600190565b60208082526018908201527f796f75206e6565642068617665206120436f6d70757465720000000000000000604082015260600190565b6020808252601490820152733cb7ba903732b2b2103430bb329030902930b4b760611b604082015260600190565b602080825260169082015275796f75206e6565642068617665206120456e6572677960501b604082015260600190565b6020808252601390820152721e5bdd481b995959081a185d99481848135d59606a1b604082015260600190565b60208082526019908201527f796f75206e6565642068617665206120457965676c6173736500000000000000604082015260600190565b6020808252601490820152731e5bdd481b995959081a185d9948184813995c9960621b604082015260600190565b6020808252601a908201527f796f75206e6565642068617665206120426c6f636b636861696e000000000000604082015260600190565b6020808252602a908201527f455243313135353a2061646472657373207a65726f206973206e6f742061207660408201526930b634b21037bbb732b960b11b606082015260800190565b602080825260149082015273796f75206e6565642068617665206120526f636b60601b604082015260600190565b602080825260149082015273796f75206e65656420686176652061204669726560601b604082015260600190565b6020808252601590820152740f2deea40dccacac840d0c2ecca40c2408ac2e4e8d605b1b604082015260600190565b6020808252601390820152723cb7ba903732b2b2103430bb3290309020b4b960691b604082015260600190565b60208082526025908201527f455243313135353a207472616e7366657220746f20746865207a65726f206164604082015264647265737360d81b606082015260800190565b6020808252601b908201527f796f75206e6565642068617665206120456c6563747269636974790000000000604082015260600190565b6020808252602a908201527f455243313135353a20696e73756666696369656e742062616c616e636520666f60408201526939103a3930b739b332b960b11b606082015260800190565b6020808252601590820152741e5bdd481b995959081a185d99481848141b185b9d605a1b604082015260600190565b6020808252601590820152741e5bdd481b995959081a185d9948184813595d185b605a1b604082015260600190565b602080825260159082015274796f75206e6565642068617665206120476c61737360581b604082015260600190565b602080825260149082015273796f75206e65656420686176652061204c61766160601b604082015260600190565b6020808252601490820152731e5bdd481b995959081a185d9948184814d85b9960621b604082015260600190565b60208082526029908201527f455243313135353a2073657474696e6720617070726f76616c20737461747573604082015268103337b91039b2b63360b91b606082015260800190565b60208082526029908201527f455243313135353a206163636f756e747320616e6420696473206c656e677468604082015268040dad2e6dac2e8c6d60bb1b606082015260800190565b60208082526028908201527f455243313135353a2069647320616e6420616d6f756e7473206c656e677468206040820152670dad2e6dac2e8c6d60c31b606082015260800190565b60208082526021908201527f455243313135353a206d696e7420746f20746865207a65726f206164647265736040820152607360f81b606082015260800190565b60208082526018908201527f796f75206e6565642068617665206120496e7465726e65740000000000000000604082015260600190565b6020808252601590820152743cb7ba903732b2b2103430bb32903090243ab6b0b760591b604082015260600190565b90815260200190565b918252602082015260400190565b600067ffffffffffffffff821115612a2757612a27612b01565b5060209081020190565b60008219821115612a4457612a44612aeb565b500190565b6000816000190483118215151615612a6357612a63612aeb565b500290565b600281046001821680612a7c57607f821691505b60208210811415612a9d57634e487b7160e01b600052602260045260246000fd5b50919050565b601f8201601f1916810167ffffffffffffffff81118282101715612ac957612ac9612b01565b6040525050565b6000600019821415612ae457612ae4612aeb565b5060010190565b634e487b7160e01b600052601160045260246000fd5b634e487b7160e01b600052604160045260246000fd5b600060033d111561173757600481823e5160e01c90565b600060443d1015612b3e57611737565b6040516003193d81016004833e81513d67ffffffffffffffff8160248401118184111715612b70575050505050611737565b8285019150815181811115612b8a57505050505050611737565b843d8701016020828501011115612ba657505050505050611737565b612bb560208286010187612aa3565b509094505050505090565b801515811461095757600080fd5b6001600160e01b03198116811461095757600080fdfea264697066735822122023f9d8c7f8603bf1f596fed8970b61581163eead12c1a240754e7023a6ecfe1064736f6c6343000801003368747470733a2f2f676174657761792e70696e6174612e636c6f75642f697066732f516d613375544b6e574c57564c375a4232466764344a79315a70774552504c3575556a704271525a4d325767327a2f7b69647d2e6a736f6e",
  "linkReferences": {},
  "deployedLinkReferences": {}
}